:1000000010C02AC029C028C027C026C046C024C0AE
:1000100023C022C021C020C01FC01EC01DC01CC0E4
:100020001BC011241FBECFE5D2E0DEBFCDBF10E064
:10003000A0E6B0E0E6E4F3E002C005900D92A23A3B
:10004000B107D9F720E0A2EAB0E001C01D92A73ABB
:10005000B207E1F731D175C1D3CF2CB5382F321BA0
:100060003A503350F0F73D5F19F03A9511F001C066
:100070000000089582E08CB989E08EBD1DBC1CBCD7
:100080001092A6001092A5008AEA92E09BBD8ABD5C
:100090008AB382688ABB789408951F920F920FB634
:1000A0000F9211242F933F934F935F936F937F93FE
:1000B0008F939F93AF93BF93EF93FF93CF93DF9370
:1000C0001F92CDB7DEB78091A5009091A6009C014C
:1000D000265031092630310558F485E591E09BBD65
:1000E0008ABD88E4BADFDF9A88E7B7DFDF98C7C048
:1000F0000C9741F48AEA92E09BBD8ABD1092A3005E
:100100001092A20088E7A9DFDF9886EAA6DFDF9ACF
:100110008EEFA3DF8091A5009091A600893021E0A9
:100120009207B9F41092A6001092A50086E890E01C
:10013000909385008093840082E790E09093710013
:10014000809370008091A40091E089278093A4009F
:100150009FC09C0121543109253A310508F08FC018
:100160002091A2003091A3004091A40087709927AC
:10017000442309F443C04091840050918500FC0160
:10018000E859FF4F80818983AAE0B0E88091A200FE
:100190009091A30001969093A3008093A200E09118
:1001A0008400F0918500608171818617970791F432
:1001B00089818BBB85958BBB85958BBB85958BBBCF
:1001C00085958BBB85958BBBBBBB3296F093850029
:1001D000E0938400A150D1F68091A5009091A600F3
:1001E00087709927892B09F44AC03093A300209384
:1001F000A200509385004093840041C0409170005C
:1002000050917100FC01E05AFF4F80818983AAE080
:10021000B0E88091A2009091A30001969093A30072
:100220008093A200E0917000F09171006081718173
:100230008617970791F489818BBB85958BBB859534
:100240008BBB85958BBB85958BBB85958BBBBBBBD2
:100250003296F0937100E0937000A150D1F6809136
:10026000A5009091A60087709927079741F03093D9
:10027000A3002093A20050937100409370008091DE
:10028000A5009091A60001969093A6008093A500EA
:100290000F90DF91CF91FF91EF91BF91AF919F911F
:1002A0008F917F916F915F914F913F912F910F901F
:1002B0000FBE0F901F9018951092A3001092A200ED
:1002C000D9DE809180009091810001969093810009
:1002D000809380008FEF98E60197F1F700C000004F
:1002E0008FEF98E60197F1F700C000008FEF98E6D6
:1002F0000197F1F700C000008FEF98E60197F1F742
:1003000000C000008FEF98E60197F1F700C00000F1
:100310008FEF98E60197F1F700C000008FEF98E6A5
:100320000197F1F700C000008FEF98E60197F1F711
:1003300000C000008FEF98E60197F1F700C00000C1
:06034000C0CFF894FFCFCE
:1003460094BCFEFEFEFEBC9480BCFEFE989898808F
:10035600720004000A000B000C000D000E002800BD
:100366003700000086000500060009000F00170090
:100376002C0038003C003D004B005F00C800FA002E
:02038600000075
:00000001FF
