:1000000010C01FC01EC01DC01CC01BC03BC019C0FB
:1000100018C017C016C015C014C013C012C011C03C
:1000200010C011241FBECFE5D2E0DEBFCDBF20E05F
:10003000A0E6B0E001C01D92A236B207E1F78AD077
:100040008CC0DECF2CB5382F321B3A503350F0F72E
:100050003D5F19F03A9511F001C00000089582E06B
:100060008CB989E08EBD1DBC1CBC10926100109241
:1000700060008AEA92E09BBD8ABD8AB3806C8ABB2D
:10008000789408951F920F920FB60F9211242F9318
:100090003F934F935F936F937F938F939F93AF9310
:1000A000BF93EF93FF9380916000909161009C015A
:1000B000265031092630310558F485E591E09BBD85
:1000C0008ABD88E4BFDFDF9A88E7BCDFDF981FC006
:1000D0000C9721F48AEA92E09BBD8ABD88E7B2DFE3
:1000E000DF9886EAAFDFDF9A8EEFACDF80916000A9
:1000F00090916100893021E0920729F4109261000B
:100100001092600016C0CD97893A910560F08091F9
:10011000600090916100019690936100809360006F
:1001200008C0DE9ADE988CB59DB58D379240C8F335
:10013000EECFFF91EF91BF91AF919F918F917F9102
:100140006F915F914F913F912F910F900FBE0F9044
:0E0150001F90189584DF18BAFECFF894FFCFE9
:00000001FF
