:1000000010C02AC029C028C027C026C033C024C0C1
:1000100023C022C021C020C01FC01EC01DC01CC0E4
:100020001BC011241FBECFE5D2E0DEBFCDBF10E064
:10003000A0E6B0E0E8EDF3E002C005900D92A8382C
:10004000B107D9F720E0A8E8B0E001C01D92A039BF
:10005000B207E1F7FDD0BEC1D3CF2CB5382F321B8C
:100060003A503350F0F73D5F19F03A9511F001C066
:10007000000008951F920F920FB60F9211242F9334
:100080003F934F935F936F937F938F939F93AF9320
:10009000BF93EF93FF9380918B0090918C009C0114
:1000A000265031092630310558F485E591E09BBD95
:1000B0008ABD88E4D2DFDF9A88E7CFDFDF98AEC061
:1000C0000C9731F48AEA92E09BBD8ABD10928800B9
:1000D00088E7C3DFDF9886EAC0DFDF9A8EEFBDDFF7
:1000E00080918B0090918C0020918F0030E08217DE
:1000F000930781F403C02BBB8F5F02C08BEF20E816
:1001000090918E008913F7CF82E88BBB8BBB8BBBA2
:100110008BBB82C0893021E09207B1F410928C0031
:1001200010928B008091890091E08927809389004B
:10013000882319F08CE790E002C082E790E090936A
:1001400071008093700073C09C01215431092F39D4
:10015000310508F04AC0409188002091700030912C
:1001600071005091890087709927FC01552319F07F
:10017000E859FF4F02C0E05AFF4F808180938D0005
:1001800089E050E8E0917000F09171006091880082
:100190009081691308C090918D003196F0937100A1
:1001A000E093700001C090E89BBB95959BBB959533
:1001B0009BBB95959BBB95959BBB95959BBB5BBB53
:1001C000909188009F5F909388008150D9F680912C
:1001D0008B0090918C0087709927079731F040939E
:1001E0008800309371002093700080918B00909173
:1001F0008C00813F910520F411C02BBB8F5F02C0A2
:1002000080E020E890918A008917B8F384E09BB3DE
:1002100092689BBB8150D9F780E88BBB80918B00A3
:1002200090918C00019690938C0080938B00FF91AD
:10023000EF91BF91AF919F918F917F916F915F915E
:100240004F913F912F910F900FBE0F901F901895D7
:1002500082E08CB989E08EBD8AEA92E09BBD8ABDBE
:100260008AB382688ABB789440E0C9E0D2E010EF9C
:100270000DEF80E79DE10197F1F74F5F4F70CB994C
:1002800005C080918A00815080938A00CC9905C076
:1002900080918A008F5F80938A0080918A008F719D
:1002A00080938A0020918F00203448F480938E0040
:1002B000D0938F00CD991FC010938F001CC0225087
:1002C00020938F0070918E0030E0C9018054910915
:1002D00097FF02C0C901C99723E0959587952A9594
:1002E000E1F769E062D0372F36953695380F7531D2
:1002F00018F03F5F01C03EEF80918E0080938E002A
:1003000080918F0080938F0020C0411116C0822FF2
:100310006C2F54D080FF07C0911102C0265F20834C
:100320008081815006C0983011F4285F208380813D
:100330008F5F8083ACE7B0E028C081812817D0F3BD
:10034000281301C0215080832183E2E7F0E028C018
:10035000411106C09081891303C0982F975F908345
:10036000381303C010928F000C938C918D3F11F4C1
:100370005C935DEF8C9111969C911197981720F4E6
:100380009C9311968C93119711968C918F3F01F746
:100390008081381304C010928F001082532F319641
:1003A00020812F3F09F465CFB0CF002480FD060ED9
:1003B000660F11F08695D1F7802D0895991B79E08D
:1003C00004C0991F961708F0961B881F7A95C9F7E5
:0803D00080950895F894FFCF19
:1003D80094BCFEFEFEFEBC9480BCFEFE98989880FD
:1003E8007C000001020304050607FFFF1E3264FDBE
:0803F800FDFDFDFDFDFDFF0010
:00000001FF
