:1000000010C02AC029C028C027C026C046C024C0AE
:1000100023C022C021C020C01FC01EC01DC01CC0E4
:100020001BC011241FBECFE5D2E0DEBFCDBF10E064
:10003000A0E6B0E0E2E2F2E002C005900D92A63840
:10004000B107D9F720E0A6E8B0E001C01D92AA38B8
:10005000B207E1F7DDD0E3C0D3CF2CB5382F321B88
:100060003A503350F0F73D5F19F03A9511F001C066
:100070000000089582E08CB989E08EBD1DBC1CBCD7
:1000800010928900109288008AEA92E09BBD8ABD96
:100090008AB382688ABB789408951F920F920FB634
:1000A0000F9211242F933F934F935F936F937F93FE
:1000B0008F939F93AF93BF93EF93FF93CF93DF9370
:1000C0001F92CDB7DEB780918800909189009C0186
:1000D000265031092630310558F485E591E09BBD65
:1000E0008ABD88E4BADFDF9A88E7B7DFDF9873C09C
:1000F0000C9741F48AEA92E09BBD8ABD109287007A
:100100001092860088E7A9DFDF9886EAA6DFDF9AEB
:100110008EEFA3DFE0918800F0918900E93081E063
:10012000F80759F410928900109288008AE690E04E
:10013000909369008093680057C0CF018054910963
:10014000863A910508F047C040918600509187009B
:100150002091680030916900E770FF27E05AFF4F57
:1001600080818983AAE0B0E8809186009091870021
:1001700001969093870080938600E0916800F0914B
:100180006900608171818617970791F489818BBB23
:1001900085958BBB85958BBB85958BBB85958BBBDF
:1001A00085958BBBBBBB3296F0936900E0936800EA
:1001B000A150D1F6D99880918800909189008770DC
:1001C0009927892B41F05093870040938600309304
:1001D00069002093680080918800909189000196C1
:1001E00090938900809388000F90DF91CF91FF91C9
:1001F000EF91BF91AF919F918F917F916F915F919F
:100200004F913F912F910F900FBE0F901F90189517
:1002100010928700109286002DDF18BAFECFF89456
:02022000FFCF0E
:1002220080BCFEFE989898806A00050006000900CE
:100232000F0017002C0038003C003D004B005F000F
:06024200C800FA000000F4
:00000001FF
